{
  "_format": "hh-sol-artifact-1",
  "contractName": "Factory",
  "sourceName": "contracts/factory/Factory.sol",
  "abi": [
    {
      "constant": true,
      "inputs": [
        {
          "name": "",
          "type": "address"
        }
      ],
      "name": "custodianDepositAddress",
      "outputs": [
        {
          "name": "",
          "type": "string"
        }
      ],
      "payable": false,
      "stateMutability": "view",
      "type": "function"
    },
    {
      "constant": false,
      "inputs": [
        {
          "name": "_token",
          "type": "address"
        }
      ],
      "name": "reclaimToken",
      "outputs": [],
      "payable": false,
      "stateMutability": "nonpayable",
      "type": "function"
    },
    {
      "constant": false,
      "inputs": [
        {
          "name": "requestHash",
          "type": "bytes32"
        }
      ],
      "name": "confirmMintRequest",
      "outputs": [
        {
          "name": "",
          "type": "bool"
        }
      ],
      "payable": false,
      "stateMutability": "nonpayable",
      "type": "function"
    },
    {
      "constant": true,
      "inputs": [],
      "name": "getMintRequestsLength",
      "outputs": [
        {
          "name": "length",
          "type": "uint256"
        }
      ],
      "payable": false,
      "stateMutability": "view",
      "type": "function"
    },
    {
      "constant": false,
      "inputs": [
        {
          "name": "depositAddress",
          "type": "string"
        }
      ],
      "name": "setMerchantDepositAddress",
      "outputs": [
        {
          "name": "",
          "type": "bool"
        }
      ],
      "payable": false,
      "stateMutability": "nonpayable",
      "type": "function"
    },
    {
      "constant": true,
      "inputs": [
        {
          "name": "",
          "type": "uint256"
        }
      ],
      "name": "mintRequests",
      "outputs": [
        {
          "name": "requester",
          "type": "address"
        },
        {
          "name": "amount",
          "type": "uint256"
        },
        {
          "name": "depositAddress",
          "type": "string"
        },
        {
          "name": "txid",
          "type": "string"
        },
        {
          "name": "nonce",
          "type": "uint256"
        },
        {
          "name": "timestamp",
          "type": "uint256"
        },
        {
          "name": "status",
          "type": "uint8"
        }
      ],
      "payable": false,
      "stateMutability": "view",
      "type": "function"
    },
    {
      "constant": false,
      "inputs": [
        {
          "name": "amount",
          "type": "uint256"
        }
      ],
      "name": "burn",
      "outputs": [
        {
          "name": "",
          "type": "bool"
        }
      ],
      "payable": false,
      "stateMutability": "nonpayable",
      "type": "function"
    },
    {
      "constant": false,
      "inputs": [],
      "name": "claimOwnership",
      "outputs": [],
      "payable": false,
      "stateMutability": "nonpayable",
      "type": "function"
    },
    {
      "constant": true,
      "inputs": [
        {
          "name": "",
          "type": "address"
        }
      ],
      "name": "merchantDepositAddress",
      "outputs": [
        {
          "name": "",
          "type": "string"
        }
      ],
      "payable": false,
      "stateMutability": "view",
      "type": "function"
    },
    {
      "constant": true,
      "inputs": [
        {
          "name": "",
          "type": "uint256"
        }
      ],
      "name": "burnRequests",
      "outputs": [
        {
          "name": "requester",
          "type": "address"
        },
        {
          "name": "amount",
          "type": "uint256"
        },
        {
          "name": "depositAddress",
          "type": "string"
        },
        {
          "name": "txid",
          "type": "string"
        },
        {
          "name": "nonce",
          "type": "uint256"
        },
        {
          "name": "timestamp",
          "type": "uint256"
        },
        {
          "name": "status",
          "type": "uint8"
        }
      ],
      "payable": false,
      "stateMutability": "view",
      "type": "function"
    },
    {
      "constant": false,
      "inputs": [],
      "name": "renounceOwnership",
      "outputs": [],
      "payable": false,
      "stateMutability": "nonpayable",
      "type": "function"
    },
    {
      "constant": true,
      "inputs": [],
      "name": "getBurnRequestsLength",
      "outputs": [
        {
          "name": "length",
          "type": "uint256"
        }
      ],
      "payable": false,
      "stateMutability": "view",
      "type": "function"
    },
    {
      "constant": false,
      "inputs": [
        {
          "name": "merchant",
          "type": "address"
        },
        {
          "name": "depositAddress",
          "type": "string"
        }
      ],
      "name": "setCustodianDepositAddress",
      "outputs": [
        {
          "name": "",
          "type": "bool"
        }
      ],
      "payable": false,
      "stateMutability": "nonpayable",
      "type": "function"
    },
    {
      "constant": false,
      "inputs": [
        {
          "name": "requestHash",
          "type": "bytes32"
        }
      ],
      "name": "rejectMintRequest",
      "outputs": [
        {
          "name": "",
          "type": "bool"
        }
      ],
      "payable": false,
      "stateMutability": "nonpayable",
      "type": "function"
    },
    {
      "constant": true,
      "inputs": [],
      "name": "owner",
      "outputs": [
        {
          "name": "",
          "type": "address"
        }
      ],
      "payable": false,
      "stateMutability": "view",
      "type": "function"
    },
    {
      "constant": false,
      "inputs": [
        {
          "name": "amount",
          "type": "uint256"
        },
        {
          "name": "txid",
          "type": "string"
        },
        {
          "name": "depositAddress",
          "type": "string"
        }
      ],
      "name": "addMintRequest",
      "outputs": [
        {
          "name": "",
          "type": "bool"
        }
      ],
      "payable": false,
      "stateMutability": "nonpayable",
      "type": "function"
    },
    {
      "constant": false,
      "inputs": [
        {
          "name": "requestHash",
          "type": "bytes32"
        },
        {
          "name": "txid",
          "type": "string"
        }
      ],
      "name": "confirmBurnRequest",
      "outputs": [
        {
          "name": "",
          "type": "bool"
        }
      ],
      "payable": false,
      "stateMutability": "nonpayable",
      "type": "function"
    },
    {
      "constant": true,
      "inputs": [
        {
          "name": "",
          "type": "bytes32"
        }
      ],
      "name": "mintRequestNonce",
      "outputs": [
        {
          "name": "",
          "type": "uint256"
        }
      ],
      "payable": false,
      "stateMutability": "view",
      "type": "function"
    },
    {
      "constant": true,
      "inputs": [
        {
          "name": "nonce",
          "type": "uint256"
        }
      ],
      "name": "getMintRequest",
      "outputs": [
        {
          "name": "requestNonce",
          "type": "uint256"
        },
        {
          "name": "requester",
          "type": "address"
        },
        {
          "name": "amount",
          "type": "uint256"
        },
        {
          "name": "depositAddress",
          "type": "string"
        },
        {
          "name": "txid",
          "type": "string"
        },
        {
          "name": "timestamp",
          "type": "uint256"
        },
        {
          "name": "status",
          "type": "string"
        },
        {
          "name": "requestHash",
          "type": "bytes32"
        }
      ],
      "payable": false,
      "stateMutability": "view",
      "type": "function"
    },
    {
      "constant": false,
      "inputs": [
        {
          "name": "requestHash",
          "type": "bytes32"
        }
      ],
      "name": "cancelMintRequest",
      "outputs": [
        {
          "name": "",
          "type": "bool"
        }
      ],
      "payable": false,
      "stateMutability": "nonpayable",
      "type": "function"
    },
    {
      "constant": true,
      "inputs": [
        {
          "name": "",
          "type": "bytes32"
        }
      ],
      "name": "burnRequestNonce",
      "outputs": [
        {
          "name": "",
          "type": "uint256"
        }
      ],
      "payable": false,
      "stateMutability": "view",
      "type": "function"
    },
    {
      "constant": true,
      "inputs": [
        {
          "name": "nonce",
          "type": "uint256"
        }
      ],
      "name": "getBurnRequest",
      "outputs": [
        {
          "name": "requestNonce",
          "type": "uint256"
        },
        {
          "name": "requester",
          "type": "address"
        },
        {
          "name": "amount",
          "type": "uint256"
        },
        {
          "name": "depositAddress",
          "type": "string"
        },
        {
          "name": "txid",
          "type": "string"
        },
        {
          "name": "timestamp",
          "type": "uint256"
        },
        {
          "name": "status",
          "type": "string"
        },
        {
          "name": "requestHash",
          "type": "bytes32"
        }
      ],
      "payable": false,
      "stateMutability": "view",
      "type": "function"
    },
    {
      "constant": true,
      "inputs": [],
      "name": "pendingOwner",
      "outputs": [
        {
          "name": "",
          "type": "address"
        }
      ],
      "payable": false,
      "stateMutability": "view",
      "type": "function"
    },
    {
      "constant": false,
      "inputs": [
        {
          "name": "newOwner",
          "type": "address"
        }
      ],
      "name": "transferOwnership",
      "outputs": [],
      "payable": false,
      "stateMutability": "nonpayable",
      "type": "function"
    },
    {
      "constant": true,
      "inputs": [],
      "name": "controller",
      "outputs": [
        {
          "name": "",
          "type": "address"
        }
      ],
      "payable": false,
      "stateMutability": "view",
      "type": "function"
    },
    {
      "inputs": [
        {
          "name": "_controller",
          "type": "address"
        }
      ],
      "payable": false,
      "stateMutability": "nonpayable",
      "type": "constructor"
    },
    {
      "anonymous": false,
      "inputs": [
        {
          "indexed": true,
          "name": "merchant",
          "type": "address"
        },
        {
          "indexed": true,
          "name": "sender",
          "type": "address"
        },
        {
          "indexed": false,
          "name": "depositAddress",
          "type": "string"
        }
      ],
      "name": "CustodianDepositAddressSet",
      "type": "event"
    },
    {
      "anonymous": false,
      "inputs": [
        {
          "indexed": true,
          "name": "merchant",
          "type": "address"
        },
        {
          "indexed": false,
          "name": "depositAddress",
          "type": "string"
        }
      ],
      "name": "MerchantDepositAddressSet",
      "type": "event"
    },
    {
      "anonymous": false,
      "inputs": [
        {
          "indexed": true,
          "name": "nonce",
          "type": "uint256"
        },
        {
          "indexed": true,
          "name": "requester",
          "type": "address"
        },
        {
          "indexed": false,
          "name": "amount",
          "type": "uint256"
        },
        {
          "indexed": false,
          "name": "depositAddress",
          "type": "string"
        },
        {
          "indexed": false,
          "name": "txid",
          "type": "string"
        },
        {
          "indexed": false,
          "name": "timestamp",
          "type": "uint256"
        },
        {
          "indexed": false,
          "name": "requestHash",
          "type": "bytes32"
        }
      ],
      "name": "MintRequestAdd",
      "type": "event"
    },
    {
      "anonymous": false,
      "inputs": [
        {
          "indexed": true,
          "name": "nonce",
          "type": "uint256"
        },
        {
          "indexed": true,
          "name": "requester",
          "type": "address"
        },
        {
          "indexed": false,
          "name": "requestHash",
          "type": "bytes32"
        }
      ],
      "name": "MintRequestCancel",
      "type": "event"
    },
    {
      "anonymous": false,
      "inputs": [
        {
          "indexed": true,
          "name": "nonce",
          "type": "uint256"
        },
        {
          "indexed": true,
          "name": "requester",
          "type": "address"
        },
        {
          "indexed": false,
          "name": "amount",
          "type": "uint256"
        },
        {
          "indexed": false,
          "name": "depositAddress",
          "type": "string"
        },
        {
          "indexed": false,
          "name": "txid",
          "type": "string"
        },
        {
          "indexed": false,
          "name": "timestamp",
          "type": "uint256"
        },
        {
          "indexed": false,
          "name": "requestHash",
          "type": "bytes32"
        }
      ],
      "name": "MintConfirmed",
      "type": "event"
    },
    {
      "anonymous": false,
      "inputs": [
        {
          "indexed": true,
          "name": "nonce",
          "type": "uint256"
        },
        {
          "indexed": true,
          "name": "requester",
          "type": "address"
        },
        {
          "indexed": false,
          "name": "amount",
          "type": "uint256"
        },
        {
          "indexed": false,
          "name": "depositAddress",
          "type": "string"
        },
        {
          "indexed": false,
          "name": "txid",
          "type": "string"
        },
        {
          "indexed": false,
          "name": "timestamp",
          "type": "uint256"
        },
        {
          "indexed": false,
          "name": "requestHash",
          "type": "bytes32"
        }
      ],
      "name": "MintRejected",
      "type": "event"
    },
    {
      "anonymous": false,
      "inputs": [
        {
          "indexed": true,
          "name": "nonce",
          "type": "uint256"
        },
        {
          "indexed": true,
          "name": "requester",
          "type": "address"
        },
        {
          "indexed": false,
          "name": "amount",
          "type": "uint256"
        },
        {
          "indexed": false,
          "name": "depositAddress",
          "type": "string"
        },
        {
          "indexed": false,
          "name": "timestamp",
          "type": "uint256"
        },
        {
          "indexed": false,
          "name": "requestHash",
          "type": "bytes32"
        }
      ],
      "name": "Burned",
      "type": "event"
    },
    {
      "anonymous": false,
      "inputs": [
        {
          "indexed": true,
          "name": "nonce",
          "type": "uint256"
        },
        {
          "indexed": true,
          "name": "requester",
          "type": "address"
        },
        {
          "indexed": false,
          "name": "amount",
          "type": "uint256"
        },
        {
          "indexed": false,
          "name": "depositAddress",
          "type": "string"
        },
        {
          "indexed": false,
          "name": "txid",
          "type": "string"
        },
        {
          "indexed": false,
          "name": "timestamp",
          "type": "uint256"
        },
        {
          "indexed": false,
          "name": "inputRequestHash",
          "type": "bytes32"
        }
      ],
      "name": "BurnConfirmed",
      "type": "event"
    },
    {
      "anonymous": false,
      "inputs": [
        {
          "indexed": true,
          "name": "previousOwner",
          "type": "address"
        }
      ],
      "name": "OwnershipRenounced",
      "type": "event"
    },
    {
      "anonymous": false,
      "inputs": [
        {
          "indexed": true,
          "name": "previousOwner",
          "type": "address"
        },
        {
          "indexed": true,
          "name": "newOwner",
          "type": "address"
        }
      ],
      "name": "OwnershipTransferred",
      "type": "event"
    }
  ],
  "bytecode": "0x608060405234801561001057600080fd5b50604051602080613682833981016040525160008054600160a060020a03191633179055600160a060020a03811615156100ab57604080517f08c379a000000000000000000000000000000000000000000000000000000000815260206004820152601b60248201527f696e76616c6964205f636f6e74726f6c6c657220616464726573730000000000604482015290519081900360640190fd5b60028054600160a060020a03909216600160a060020a031992831681179091556000805490921617905561359e806100e46000396000f30060806040526004361061012f5763ffffffff60e060020a60003504166314990ace811461013457806317ffc320146101ca5780632bf90baa146101ed578063311104f3146102195780633a0fa69014610240578063424e65751461026057806342966c68146103995780634e71e0c8146103b157806353a6bd44146103c65780636406c10c146103e7578063715018a6146103ff57806372f69a721461041457806373e6b0b814610429578063861f92a8146104565780638da5cb5b1461046e5780638e24a7641461049f5780639355f0a4146104cf5780639ad4b86b146104f3578063b69b22d81461050b578063c06e2d24146106a4578063c72551be146106bc578063e21c40c0146106d4578063e30c3978146106ec578063f2fde38b14610701578063f77c479114610722575b600080fd5b34801561014057600080fd5b50610155600160a060020a0360043516610737565b6040805160208082528351818301528351919283929083019185019080838360005b8381101561018f578181015183820152602001610177565b50505050905090810190601f1680156101bc5780820380516001836020036101000a031916815260200191505b509250505060405180910390f35b3480156101d657600080fd5b506101eb600160a060020a03600435166107d2565b005b3480156101f957600080fd5b50610205600435610888565b604080519115158252519081900360200190f35b34801561022557600080fd5b5061022e610bbc565b60408051918252519081900360200190f35b34801561024c57600080fd5b506102056004803560248101910135610bc3565b34801561026c57600080fd5b50610278600435610d7b565b6040518088600160a060020a0316600160a060020a0316815260200187815260200180602001806020018681526020018581526020018460038111156102ba57fe5b60ff168152602001838103835288818151815260200191508051906020019080838360005b838110156102f75781810151838201526020016102df565b50505050905090810190601f1680156103245780820380516001836020036101000a031916815260200191505b50838103825287518152875160209182019189019080838360005b8381101561035757818101518382015260200161033f565b50505050905090810190601f1680156103845780820380516001836020036101000a031916815260200191505b50995050505050505050505060405180910390f35b3480156103a557600080fd5b50610205600435610eeb565b3480156103bd57600080fd5b506101eb611544565b3480156103d257600080fd5b50610155600160a060020a03600435166115bf565b3480156103f357600080fd5b50610278600435611627565b34801561040b57600080fd5b506101eb611635565b34801561042057600080fd5b5061022e611694565b34801561043557600080fd5b5061020560048035600160a060020a0316906024803590810191013561169a565b34801561046257600080fd5b506102056004356119af565b34801561047a57600080fd5b50610483611b69565b60408051600160a060020a039092168252519081900360200190f35b3480156104ab57600080fd5b50610205600480359060248035808201929081013591604435908101910135611b78565b3480156104db57600080fd5b50610205600480359060248035908101910135612072565b3480156104ff57600080fd5b5061022e60043561248c565b34801561051757600080fd5b5061052360043561249e565b6040518089815260200188600160a060020a0316600160a060020a031681526020018781526020018060200180602001868152602001806020018560001916600019168152602001848103845289818151815260200191508051906020019080838360005b838110156105a0578181015183820152602001610588565b50505050905090810190601f1680156105cd5780820380516001836020036101000a031916815260200191505b5084810383528851815288516020918201918a019080838360005b838110156106005781810151838201526020016105e8565b50505050905090810190601f16801561062d5780820380516001836020036101000a031916815260200191505b50848103825286518152865160209182019188019080838360005b83811015610660578181015183820152602001610648565b50505050905090810190601f16801561068d5780820380516001836020036101000a031916815260200191505b509b50505050505050505050505060405180910390f35b3480156106b057600080fd5b506102056004356126b5565b3480156106c857600080fd5b5061022e600435612893565b3480156106e057600080fd5b506105236004356128a5565b3480156106f857600080fd5b50610483612ada565b34801561070d57600080fd5b506101eb600160a060020a0360043516612ae9565b34801561072e57600080fd5b50610483612b22565b60036020908152600091825260409182902080548351601f6002600019610100600186161502019093169290920491820184900484028101840190945280845290918301828280156107ca5780601f1061079f576101008083540402835291602001916107ca565b820191906000526020600020905b8154815290600101906020018083116107ad57829003601f168201915b505050505081565b60008054600160a060020a031633146107ea57600080fd5b6040805160e060020a6370a082310281523060048201529051600160a060020a038416916370a082319160248083019260209291908290030181600087803b15801561083557600080fd5b505af1158015610849573d6000803e3d6000fd5b505050506040513d602081101561085f57600080fd5b505160005490915061088490600160a060020a0384811691168363ffffffff612b3116565b5050565b6000806108936133bb565b6002546040805160e260020a630d7203230281523360048201529051600160a060020a03909216916335c80c8c916024808201926020929091908290030181600087803b1580156108e357600080fd5b505af11580156108f7573d6000803e3d6000fd5b505050506040513d602081101561090d57600080fd5b50511515610953576040805160e560020a62461bcd0281526020600482015260176024820152600080516020613533833981519152604482015290519081900360640190fd5b61095c84612bd0565b600780549294509092506002918490811061097357fe5b60009182526020909120600660079092020101805460ff1916600183600381111561099a57fe5b021790555060025481516020808401516040805160e060020a6340c10f19028152600160a060020a03948516600482015260248101929092525192909316926340c10f1992604480830193928290030181600087803b1580156109fc57600080fd5b505af1158015610a10573d6000803e3d6000fd5b505050506040513d6020811015610a2657600080fd5b50511515610a6f576040805160e560020a62461bcd02815260206004820152600b602482015260aa60020a6a1b5a5b9d0819985a5b195902604482015290519081900360640190fd5b8060000151600160a060020a031681608001517f051f4ba27061b0e6dc829669a7baa8bba9cf7f6cd2f95e1f0bdd9c22126d8b218360200151846040015185606001518660a001518a6040518086815260200180602001806020018581526020018460001916600019168152602001838103835287818151815260200191508051906020019080838360005b83811015610b13578181015183820152602001610afb565b50505050905090810190601f168015610b405780820380516001836020036101000a031916815260200191505b50838103825286518152865160209182019188019080838360005b83811015610b73578181015183820152602001610b5b565b50505050905090810190601f168015610ba05780820380516001836020036101000a031916815260200191505b5097505050505050505060405180910390a35060019392505050565b6007545b90565b6002546040805160e060020a631a2f71670281523360048201529051600092600160a060020a031691631a2f716791602480830192602092919082900301818787803b158015610c1257600080fd5b505af1158015610c26573d6000803e3d6000fd5b505050506040513d6020811015610c3c57600080fd5b50511515610c82576040805160e560020a62461bcd0281526020600482015260166024820152600080516020613513833981519152604482015290519081900360640190fd5b610cbb83838080601f01602080910402602001604051908101604052809392919081815260200183838082843750612df3945050505050565b15610cfe576040805160e560020a62461bcd02815260206004820152601d6024820152600080516020613553833981519152604482015290519081900360640190fd5b336000908152600460205260409020610d1890848461340c565b5033600160a060020a03167e2710e4743caa591c537cdab906e6a5d0f6466c6dcff14aeadeb4165f4252e384846040518080602001828103825284848281815260200192508082843760405192018290039550909350505050a250600192915050565b6007805482908110610d8957fe5b6000918252602091829020600791909102018054600180830154600280850180546040805161010096831615969096026000190190911692909204601f8101889004880285018801909252818452600160a060020a0390941696509094919291830182828015610e3a5780601f10610e0f57610100808354040283529160200191610e3a565b820191906000526020600020905b815481529060010190602001808311610e1d57829003601f168201915b5050505060038301805460408051602060026001851615610100026000190190941693909304601f8101849004840282018401909252818152949594935090830182828015610eca5780601f10610e9f57610100808354040283529160200191610eca565b820191906000526020600020905b815481529060010190602001808311610ead57829003601f168201915b50505050600483015460058401546006909401549293909290915060ff1687565b600060606000806060610efc6133bb565b6002546040805160e060020a631a2f71670281523360048201529051600092600160a060020a031691631a2f716791602480830192602092919082900301818787803b158015610f4b57600080fd5b505af1158015610f5f573d6000803e3d6000fd5b505050506040513d6020811015610f7557600080fd5b50511515610fbb576040805160e560020a62461bcd0281526020600482015260166024820152600080516020613513833981519152604482015290519081900360640190fd5b3360009081526004602090815260409182902080548351601f60026000196101006001861615020190931692909204918201849004840281018401909452808452909183018282801561104f5780601f106110245761010080835404028352916020019161104f565b820191906000526020600020905b81548152906001019060200180831161103257829003601f168201915b5050505050955061105f86612df3565b156110ca576040805160e560020a62461bcd02815260206004820152602a60248201527f6d65726368616e74206173736574206465706f73697420616464726573732077604482015260b260020a69185cc81b9bdd081cd95d02606482015290519081900360840190fd5b60085494506110d7612e17565b60408051602081810183526000808352835160e0810185523381529182018d90529281018a9052606081018290526080810189905260a08101849052929650945060c0820152915061112882612e1b565b6000818152600660209081526040808320899055600880546001810180835591909452865160079094027ff3f7a9fe364faab93b216da50a3214154f22a0a2b415b23a84c8169e8b636ee381018054600160a060020a03909616600160a060020a0319909616959095178555878401517ff3f7a9fe364faab93b216da50a3214154f22a0a2b415b23a84c8169e8b636ee482015591870151805195965090948794936111f8937ff3f7a9fe364faab93b216da50a3214154f22a0a2b415b23a84c8169e8b636ee50192019061348a565b506060820151805161121491600384019160209091019061348a565b506080820151600482015560a0820151600582015560c082015160068201805460ff1916600183600381111561124657fe5b0217905550505050600260009054906101000a9004600160a060020a0316600160a060020a03166321df0da76040518163ffffffff1660e060020a028152600401602060405180830381600087803b1580156112a157600080fd5b505af11580156112b5573d6000803e3d6000fd5b505050506040513d60208110156112cb57600080fd5b50516002546040805160e060020a6323b872dd028152336004820152600160a060020a039283166024820152604481018c9052905191909216916323b872dd9160648083019260209291908290030181600087803b15801561132c57600080fd5b505af1158015611340573d6000803e3d6000fd5b505050506040513d602081101561135657600080fd5b505115156113ae576040805160e560020a62461bcd02815260206004820152601e60248201527f7472616e7366657220746f6b656e7320746f206275726e206661696c65640000604482015290519081900360640190fd5b6002546040805160e360020a630852cd8d028152600481018b90529051600160a060020a03909216916342966c68916024808201926020929091908290030181600087803b1580156113ff57600080fd5b505af1158015611413573d6000803e3d6000fd5b505050506040513d602081101561142957600080fd5b50511515611472576040805160e560020a62461bcd02815260206004820152600b602482015260aa60020a6a189d5c9b8819985a5b195902604482015290519081900360640190fd5b33600160a060020a0316857f865e64c3fa22a0daee479fc02875d3e97d581930b9679232344d4d5dcce6a7b28a89888660405180858152602001806020018481526020018360001916600019168152602001828103825285818151815260200191508051906020019080838360005b838110156114f95781810151838201526020016114e1565b50505050905090810190601f1680156115265780820380516001836020036101000a031916815260200191505b509550505050505060405180910390a3506001979650505050505050565b600154600160a060020a0316331461155b57600080fd5b60015460008054604051600160a060020a0393841693909116917f8be0079c531659141344cd1fd0a4f28419497f9722a3daafe3b4186f6b6457e091a36001805460008054600160a060020a0319908116600160a060020a03841617909155169055565b60046020908152600091825260409182902080548351601f6002600019610100600186161502019093169290920491820184900484028101840190945280845290918301828280156107ca5780601f1061079f576101008083540402835291602001916107ca565b6008805482908110610d8957fe5b600054600160a060020a0316331461164c57600080fd5b60008054604051600160a060020a03909116917ff8df31144d9c2f0f6b59d69b8b98abd5459d07f2742c4df920b25aae33c6482091a260008054600160a060020a0319169055565b60085490565b6002546040805160e260020a630d7203230281523360048201529051600092600160a060020a0316916335c80c8c91602480830192602092919082900301818787803b1580156116e957600080fd5b505af11580156116fd573d6000803e3d6000fd5b505050506040513d602081101561171357600080fd5b50511515611759576040805160e560020a62461bcd0281526020600482015260176024820152600080516020613533833981519152604482015290519081900360640190fd5b600160a060020a03841615156117b9576040805160e560020a62461bcd02815260206004820152601860248201527f696e76616c6964206d65726368616e7420616464726573730000000000000000604482015290519081900360640190fd5b6002546040805160e060020a631a2f7167028152600160a060020a03878116600483015291519190921691631a2f71679160248083019260209291908290030181600087803b15801561180b57600080fd5b505af115801561181f573d6000803e3d6000fd5b505050506040513d602081101561183557600080fd5b505115156118a1576040805160e560020a62461bcd02815260206004820152602860248201527f6d65726368616e742061646472657373206973206e6f742061207265616c206d604482015260c160020a6732b931b430b73a1702606482015290519081900360840190fd5b6118da83838080601f01602080910402602001604051908101604052809392919081815260200183838082843750612df3945050505050565b1561191d576040805160e560020a62461bcd02815260206004820152601d6024820152600080516020613553833981519152604482015290519081900360640190fd5b600160a060020a038416600090815260036020526040902061194090848461340c565b5033600160a060020a031684600160a060020a03167f889518f7687592efeb6e775822956ccb4e2a41cfb5bab0438d634523ccf6336d85856040518080602001828103825284848281815260200192508082843760405192018290039550909350505050a35060019392505050565b6000806119ba6133bb565b6002546040805160e260020a630d7203230281523360048201529051600160a060020a03909216916335c80c8c916024808201926020929091908290030181600087803b158015611a0a57600080fd5b505af1158015611a1e573d6000803e3d6000fd5b505050506040513d6020811015611a3457600080fd5b50511515611a7a576040805160e560020a62461bcd0281526020600482015260176024820152600080516020613533833981519152604482015290519081900360640190fd5b611a8384612bd0565b6007805492945090925060039184908110611a9a57fe5b60009182526020909120600660079092020101805460ff19166001836003811115611ac157fe5b02179055508060000151600160a060020a031681608001517fdadc06f5b98131083e96b856c044184efd23ae2e797a876fd80aa5dae4f724558360200151846040015185606001518660a001518a60405180868152602001806020018060200185815260200184600019166000191681526020018381038352878181518152602001915080519060200190808383600083811015610b13578181015183820152602001610afb565b600054600160a060020a031681565b6000806000611b856133bb565b6002546040805160e060020a631a2f71670281523360048201529051600092600160a060020a031691631a2f716791602480830192602092919082900301818787803b158015611bd457600080fd5b505af1158015611be8573d6000803e3d6000fd5b505050506040513d6020811015611bfe57600080fd5b50511515611c44576040805160e560020a62461bcd0281526020600482015260166024820152600080516020613513833981519152604482015290519081900360640190fd5b611c7d87878080601f01602080910402602001604051908101604052809392919081815260200183838082843750612df3945050505050565b15611cc0576040805160e560020a62461bcd02815260206004820152601d6024820152600080516020613553833981519152604482015290519081900360640190fd5b611d9387878080601f0160208091040260200160405190810160405280939291908181526020018383808284375050336000908152600360209081526040918290208054835160026001831615610100026000190190921691909104601f8101849004840282018401909452838152965094509092508401905082828015611d895780601f10611d5e57610100808354040283529160200191611d89565b820191906000526020600020905b815481529060010190602001808311611d6c57829003601f168201915b5050505050612fb1565b1515611de9576040805160e560020a62461bcd02815260206004820152601b60248201527f77726f6e67206173736574206465706f73697420616464726573730000000000604482015290519081900360640190fd5b6007549350611df6612e17565b925060e06040519081016040528033600160a060020a031681526020018b815260200188888080601f01602080910402602001604051908101604052809392919081815260200183838082843782019150505050505081526020018a8a8080601f0160208091040260200160405190810160405280939291908181526020018383808284375050509284525050506020810186905260408101859052606001600090529150611ea482612e1b565b6000818152600560209081526040808320889055600780546001810180835594829052875191027fa66cc928b5edb82af9bd49922954155ab7b0942694bea4ce44661d9a8736c68881018054600160a060020a03909316600160a060020a0319909316929092178255878401517fa66cc928b5edb82af9bd49922954155ab7b0942694bea4ce44661d9a8736c689820155918701518051959650939487949193611f72937fa66cc928b5edb82af9bd49922954155ab7b0942694bea4ce44661d9a8736c68a0192019061348a565b5060608201518051611f8e91600384019160209091019061348a565b506080820151600482015560a0820151600582015560c082015160068201805460ff19166001836003811115611fc057fe5b021790555050505033600160a060020a0316847f09e00024b3e14e42d4e78c05bf370a34c2e4ce4027dad38abafdb1bf49da432f8c8a8a8e8e8a89604051808881526020018060200180602001858152602001846000191660001916815260200183810383528989828181526020019250808284379091018481038352878152602001905087878082843760405192018290039b50909950505050505050505050a35060019998505050505050505050565b60008061207d6133bb565b6002546040805160e260020a630d7203230281523360048201529051600160a060020a03909216916335c80c8c916024808201926020929091908290030181600087803b1580156120cd57600080fd5b505af11580156120e1573d6000803e3d6000fd5b505050506040513d60208110156120f757600080fd5b5051151561213d576040805160e560020a62461bcd0281526020600482015260176024820152600080516020613533833981519152604482015290519081900360640190fd5b6121468661313e565b8092508193505050848460088481548110151561215f57fe5b9060005260206000209060070201600301919061217d92919061340c565b50600260088381548110151561218f57fe5b60009182526020909120600660079092020101805460ff191660018360038111156121b657fe5b021790555081600660006123706008868154811015156121d257fe5b60009182526020918290206040805160e0810182526007939093029091018054600160a060020a03168352600180820154848601526002808301805485516101009482161594909402600019011691909104601f81018790048702830187018552808352949592949386019391929091908301828280156122945780601f1061226957610100808354040283529160200191612294565b820191906000526020600020905b81548152906001019060200180831161227757829003601f168201915b505050918352505060038201805460408051602060026001851615610100026000190190941693909304601f81018490048402820184019092528181529382019392918301828280156123285780601f106122fd57610100808354040283529160200191612328565b820191906000526020600020905b81548152906001019060200180831161230b57829003601f168201915b50505091835250506004820154602082015260058201546040820152600682015460609091019060ff16600381111561235d57fe5b600381111561236857fe5b905250612e1b565b60001916600019168152602001908152602001600020819055508060000151600160a060020a031681608001517f1949e77206780c38f7c6487c926f8a51280fcdbf63397a01a3428dbfccd2b09f8360200151846040015189898760a001518d6040518087815260200180602001806020018581526020018460001916600019168152602001838103835288818151815260200191508051906020019080838360005b8381101561242b578181015183820152602001612413565b50505050905090810190601f1680156124585780820380516001836020036101000a031916815260200191505b50838103825286815260200187878082843760405192018290039a509098505050505050505050a350600195945050505050565b60056020526000908152604090205481565b60008060006060806000606060006124b46133bb565b606060078b8154811015156124c557fe5b60009182526020918290206040805160e0810182526007939093029091018054600160a060020a03168352600180820154848601526002808301805485516101009482161594909402600019011691909104601f81018790048702830187018552808352949592949386019391929091908301828280156125875780601f1061255c57610100808354040283529160200191612587565b820191906000526020600020905b81548152906001019060200180831161256a57829003601f168201915b505050918352505060038201805460408051602060026001851615610100026000190190941693909304601f810184900484028201840190925281815293820193929183018282801561261b5780601f106125f05761010080835404028352916020019161261b565b820191906000526020600020905b8154815290600101906020018083116125fe57829003601f168201915b50505091835250506004820154602082015260058201546040820152600682015460609091019060ff16600381111561265057fe5b600381111561265b57fe5b81525050915061266e8260c001516131b7565b905081608001519950816000015198508160200151975081604001519650816060015195508160a0015194508093506126a682612e1b565b92505050919395975091939597565b6000806126c06133bb565b6002546040805160e060020a631a2f71670281523360048201529051600160a060020a0390921691631a2f7167916024808201926020929091908290030181600087803b15801561271057600080fd5b505af1158015612724573d6000803e3d6000fd5b505050506040513d602081101561273a57600080fd5b50511515612780576040805160e560020a62461bcd0281526020600482015260166024820152600080516020613513833981519152604482015290519081900360640190fd5b61278984612bd0565b80519193509150600160a060020a03163314612815576040805160e560020a62461bcd02815260206004820152603960248201527f63616e63656c2073656e64657220697320646966666572656e74207468616e2060448201527f70656e64696e67207265717565737420696e69746961746f7200000000000000606482015290519081900360840190fd5b600160078381548110151561282657fe5b60009182526020909120600660079092020101805460ff1916600183600381111561284d57fe5b0217905550604080518581529051339184917fb419f275eebfa354bbab2709955ee0c0e25ca95fae50a8e3672c5e3d9c931f589181900360200190a35060019392505050565b60066020526000908152604090205481565b600080600060608060006060600080606060088b8154811015156128c557fe5b6000918252602090912060079091020160068101549092506128e99060ff166131b7565b9050816004015499508160000160009054906101000a9004600160a060020a0316985081600101549750816002018054600181600116156101000203166002900480601f0160208091040260200160405190810160405280929190818152602001828054600181600116156101000203166002900480156129ab5780601f10612980576101008083540402835291602001916129ab565b820191906000526020600020905b81548152906001019060200180831161298e57829003601f168201915b5050505060038401805460408051602060026001851615610100026000190190941693909304601f8101849004840282018401909252818152949b50919250830182828015612a3b5780601f10612a1057610100808354040283529160200191612a3b565b820191906000526020600020905b815481529060010190602001808311612a1e57829003601f168201915b5050505060058401546040805160e0810182528654600160a060020a031681526001808801546020808401919091526002808a01805486516101009582161595909502600019011691909104601f81018390048302840183018652808452979d50949b5096995089966126a6969295508894938601939192908301828280156122945780601f1061226957610100808354040283529160200191612294565b600154600160a060020a031681565b600054600160a060020a03163314612b0057600080fd5b60018054600160a060020a031916600160a060020a0392909216919091179055565b600254600160a060020a031681565b82600160a060020a031663a9059cbb83836040518363ffffffff1660e060020a0281526004018083600160a060020a0316600160a060020a0316815260200182815260200192505050602060405180830381600087803b158015612b9457600080fd5b505af1158015612ba8573d6000803e3d6000fd5b505050506040513d6020811015612bbe57600080fd5b50511515612bcb57600080fd5b505050565b6000612bda6133bb565b821515612c28576040805160e560020a62461bcd0281526020600482015260116024820152607c60020a70072657175657374206861736820697320302604482015290519081900360640190fd5b600083815260056020526040902054600780549193509083908110612c4957fe5b60009182526020918290206040805160e0810182526007939093029091018054600160a060020a03168352600180820154848601526002808301805485516101009482161594909402600019011691909104601f8101879004870283018701855280835294959294938601939192909190830182828015612d0b5780601f10612ce057610100808354040283529160200191612d0b565b820191906000526020600020905b815481529060010190602001808311612cee57829003601f168201915b505050918352505060038201805460408051602060026001851615610100026000190190941693909304601f8101849004840282018401909252818152938201939291830182828015612d9f5780601f10612d7457610100808354040283529160200191612d9f565b820191906000526020600020905b815481529060010190602001808311612d8257829003601f168201915b50505091835250506004820154602082015260058201546040820152600682015460609091019060ff166003811115612dd457fe5b6003811115612ddf57fe5b9052509050612dee81846132cf565b915091565b6000612e0f826020604051908101604052806000815250612fb1565b90505b919050565b4290565b6000816000015182602001518360400151846060015185608001518660a001516040516020018087600160a060020a0316600160a060020a031681526020018681526020018060200180602001858152602001848152602001838103835287818151815260200191508051906020019080838360005b83811015612ea9578181015183820152602001612e91565b50505050905090810190601f168015612ed65780820380516001836020036101000a031916815260200191505b50838103825286518152865160209182019188019080838360005b83811015612f09578181015183820152602001612ef1565b50505050905090810190601f168015612f365780820380516001836020036101000a031916815260200191505b50985050505050505050506040516020818303038152906040526040518082805190602001908083835b60208310612f7f5780518252601f199092019160209182019101612f60565b5181516020939093036101000a6000190180199091169216919091179052604051920182900390912095945050505050565b6000816040516020018082805190602001908083835b60208310612fe65780518252601f199092019160209182019101612fc7565b6001836020036101000a0380198251168184511680821785525050505050509050019150506040516020818303038152906040526040518082805190602001908083835b602083106130495780518252601f19909201916020918201910161302a565b51815160209384036101000a60001901801990921691161790526040519190930181900381208851909550889450908301928392508401908083835b602083106130a45780518252601f199092019160209182019101613085565b6001836020036101000a0380198251168184511680821785525050505050509050019150506040516020818303038152906040526040518082805190602001908083835b602083106131075780518252601f1990920191602091820191016130e8565b5181516020939093036101000a60001901801990911692169190911790526040519201829003909120939093149695505050505050565b60006131486133bb565b821515613196576040805160e560020a62461bcd0281526020600482015260116024820152607c60020a70072657175657374206861736820697320302604482015290519081900360640190fd5b600083815260066020526040902054600880549193509083908110612c4957fe5b606060008260038111156131c757fe5b14156131f45750604080518082019091526007815260c860020a6670656e64696e67026020820152612e12565b600182600381111561320257fe5b14156132305750604080518082019091526008815260c260020a6718d85b98d95b1959026020820152612e12565b600282600381111561323e57fe5b141561326c5750604080518082019091526008815260c260020a67185c1c1c9bdd9959026020820152612e12565b600382600381111561327a57fe5b14156132a85750604080518082019091526008815260c260020a671c995a9958dd1959026020820152612e12565b50604080518082019091526007815260c960020a663ab735b737bbb7026020820152612e12565b60008260c0015160038111156132e157fe5b14613336576040805160e560020a62461bcd02815260206004820152601660248201527f72657175657374206973206e6f742070656e64696e6700000000000000000000604482015290519081900360640190fd5b61333f82612e1b565b8114610884576040805160e560020a62461bcd02815260206004820152603360248201527f676976656e2072657175657374206861736820646f6573206e6f74206d61746360448201527f6820612070656e64696e67207265717565737400000000000000000000000000606482015290519081900360840190fd5b60e0604051908101604052806000600160a060020a0316815260200160008152602001606081526020016060815260200160008152602001600081526020016000600381111561340757fe5b905290565b828054600181600116156101000203166002900490600052602060002090601f016020900481019282601f1061344d5782800160ff1982351617855561347a565b8280016001018555821561347a579182015b8281111561347a57823582559160200191906001019061345f565b506134869291506134f8565b5090565b828054600181600116156101000203166002900490600052602060002090601f016020900481019282601f106134cb57805160ff191683800117855561347a565b8280016001018555821561347a579182015b8281111561347a5782518255916020019190600101906134dd565b610bc091905b8082111561348657600081556001016134fe560073656e646572206e6f742061206d65726368616e742e0000000000000000000073656e646572206e6f74206120637573746f6469616e2e000000000000000000696e76616c6964206173736574206465706f7369742061646472657373000000a165627a7a72305820f364f6233c16ef66aa6cb9355005da54981a6efeb567d55f354edab8e61878d90029",
  "linkReferences": {},
  "deployedLinkReferences": {}
}