{
  "_format": "hh-sol-artifact-1",
  "contractName": "Members",
  "sourceName": "contracts/factory/Members.sol",
  "abi": [
    {
      "constant": false,
      "inputs": [
        {
          "name": "merchant",
          "type": "address"
        }
      ],
      "name": "removeMerchant",
      "outputs": [
        {
          "name": "",
          "type": "bool"
        }
      ],
      "payable": false,
      "stateMutability": "nonpayable",
      "type": "function"
    },
    {
      "constant": false,
      "inputs": [
        {
          "name": "_token",
          "type": "address"
        }
      ],
      "name": "reclaimToken",
      "outputs": [],
      "payable": false,
      "stateMutability": "nonpayable",
      "type": "function"
    },
    {
      "constant": true,
      "inputs": [
        {
          "name": "addr",
          "type": "address"
        }
      ],
      "name": "isMerchant",
      "outputs": [
        {
          "name": "",
          "type": "bool"
        }
      ],
      "payable": false,
      "stateMutability": "view",
      "type": "function"
    },
    {
      "constant": true,
      "inputs": [
        {
          "name": "addr",
          "type": "address"
        }
      ],
      "name": "isCustodian",
      "outputs": [
        {
          "name": "",
          "type": "bool"
        }
      ],
      "payable": false,
      "stateMutability": "view",
      "type": "function"
    },
    {
      "constant": true,
      "inputs": [],
      "name": "custodian",
      "outputs": [
        {
          "name": "",
          "type": "address"
        }
      ],
      "payable": false,
      "stateMutability": "view",
      "type": "function"
    },
    {
      "constant": false,
      "inputs": [
        {
          "name": "_custodian",
          "type": "address"
        }
      ],
      "name": "setCustodian",
      "outputs": [
        {
          "name": "",
          "type": "bool"
        }
      ],
      "payable": false,
      "stateMutability": "nonpayable",
      "type": "function"
    },
    {
      "constant": false,
      "inputs": [],
      "name": "claimOwnership",
      "outputs": [],
      "payable": false,
      "stateMutability": "nonpayable",
      "type": "function"
    },
    {
      "constant": true,
      "inputs": [
        {
          "name": "index",
          "type": "uint256"
        }
      ],
      "name": "getMerchant",
      "outputs": [
        {
          "name": "",
          "type": "address"
        }
      ],
      "payable": false,
      "stateMutability": "view",
      "type": "function"
    },
    {
      "constant": false,
      "inputs": [],
      "name": "renounceOwnership",
      "outputs": [],
      "payable": false,
      "stateMutability": "nonpayable",
      "type": "function"
    },
    {
      "constant": true,
      "inputs": [],
      "name": "owner",
      "outputs": [
        {
          "name": "",
          "type": "address"
        }
      ],
      "payable": false,
      "stateMutability": "view",
      "type": "function"
    },
    {
      "constant": false,
      "inputs": [
        {
          "name": "merchant",
          "type": "address"
        }
      ],
      "name": "addMerchant",
      "outputs": [
        {
          "name": "",
          "type": "bool"
        }
      ],
      "payable": false,
      "stateMutability": "nonpayable",
      "type": "function"
    },
    {
      "constant": true,
      "inputs": [],
      "name": "getMerchants",
      "outputs": [
        {
          "name": "",
          "type": "address[]"
        }
      ],
      "payable": false,
      "stateMutability": "view",
      "type": "function"
    },
    {
      "constant": true,
      "inputs": [],
      "name": "pendingOwner",
      "outputs": [
        {
          "name": "",
          "type": "address"
        }
      ],
      "payable": false,
      "stateMutability": "view",
      "type": "function"
    },
    {
      "constant": false,
      "inputs": [
        {
          "name": "newOwner",
          "type": "address"
        }
      ],
      "name": "transferOwnership",
      "outputs": [],
      "payable": false,
      "stateMutability": "nonpayable",
      "type": "function"
    },
    {
      "inputs": [
        {
          "name": "_owner",
          "type": "address"
        }
      ],
      "payable": false,
      "stateMutability": "nonpayable",
      "type": "constructor"
    },
    {
      "anonymous": false,
      "inputs": [
        {
          "indexed": true,
          "name": "custodian",
          "type": "address"
        }
      ],
      "name": "CustodianSet",
      "type": "event"
    },
    {
      "anonymous": false,
      "inputs": [
        {
          "indexed": true,
          "name": "merchant",
          "type": "address"
        }
      ],
      "name": "MerchantAdd",
      "type": "event"
    },
    {
      "anonymous": false,
      "inputs": [
        {
          "indexed": true,
          "name": "merchant",
          "type": "address"
        }
      ],
      "name": "MerchantRemove",
      "type": "event"
    },
    {
      "anonymous": false,
      "inputs": [
        {
          "indexed": true,
          "name": "previousOwner",
          "type": "address"
        }
      ],
      "name": "OwnershipRenounced",
      "type": "event"
    },
    {
      "anonymous": false,
      "inputs": [
        {
          "indexed": true,
          "name": "previousOwner",
          "type": "address"
        },
        {
          "indexed": true,
          "name": "newOwner",
          "type": "address"
        }
      ],
      "name": "OwnershipTransferred",
      "type": "event"
    }
  ],
  "bytecode": "0x608060405234801561001057600080fd5b50604051602080610c0f833981016040525160008054600160a060020a03191633179055600160a060020a03811615156100ab57604080517f08c379a000000000000000000000000000000000000000000000000000000000815260206004820152601660248201527f696e76616c6964205f6f776e6572206164647265737300000000000000000000604482015290519081900360640190fd5b60008054600160a060020a03909216600160a060020a0319909216919091179055610b34806100db6000396000f3006080604052600436106100b65763ffffffff60e060020a600035041663133adab681146100bb57806317ffc320146100f05780631a2f71671461011357806335c80c8c14610134578063375b74c314610155578063403f3731146101865780634e71e0c8146101a75780635d32798a146101bc578063715018a6146101d45780638da5cb5b146101e9578063bf76c0ef146101fe578063e2d1800f1461021f578063e30c397814610284578063f2fde38b14610299575b600080fd5b3480156100c757600080fd5b506100dc600160a060020a03600435166102ba565b604080519115158252519081900360200190f35b3480156100fc57600080fd5b50610111600160a060020a03600435166103d5565b005b34801561011f57600080fd5b506100dc600160a060020a036004351661048b565b34801561014057600080fd5b506100dc600160a060020a03600435166104a4565b34801561016157600080fd5b5061016a6104b8565b60408051600160a060020a039092168252519081900360200190f35b34801561019257600080fd5b506100dc600160a060020a03600435166104c7565b3480156101b357600080fd5b5061011161058e565b3480156101c857600080fd5b5061016a600435610609565b3480156101e057600080fd5b5061011161061c565b3480156101f557600080fd5b5061016a61067b565b34801561020a57600080fd5b506100dc600160a060020a036004351661068a565b34801561022b57600080fd5b506102346107a5565b60408051602080825283518183015283519192839290830191858101910280838360005b83811015610270578181015183820152602001610258565b505050509050019250505060405180910390f35b34801561029057600080fd5b5061016a6107b7565b3480156102a557600080fd5b50610111600160a060020a03600435166107c6565b60008054600160a060020a031633146102d257600080fd5b600160a060020a0382161515610332576040805160e560020a62461bcd02815260206004820152601860248201527f696e76616c6964206d65726368616e7420616464726573730000000000000000604482015290519081900360640190fd5b61034360038363ffffffff6107ff16565b1515610399576040805160e560020a62461bcd02815260206004820152601660248201527f6d65726368616e742072656d6f7665206661696c656400000000000000000000604482015290519081900360640190fd5b604051600160a060020a038316907f992dc0f9ccd9e3a061bd113c6caf19dceacce1f3e2ec016588b03ade3649d00490600090a2506001919050565b60008054600160a060020a031633146103ed57600080fd5b6040805160e060020a6370a082310281523060048201529051600160a060020a038416916370a082319160248083019260209291908290030181600087803b15801561043857600080fd5b505af115801561044c573d6000803e3d6000fd5b505050506040513d602081101561046257600080fd5b505160005490915061048790600160a060020a0384811691168363ffffffff61090616565b5050565b600061049e60038363ffffffff6109a516565b92915050565b600254600160a060020a0390811691161490565b600254600160a060020a031681565b60008054600160a060020a031633146104df57600080fd5b600160a060020a038216151561053f576040805160e560020a62461bcd02815260206004820152601960248201527f696e76616c696420637573746f6469616e206164647265737300000000000000604482015290519081900360640190fd5b60028054600160a060020a031916600160a060020a0384169081179091556040517fb88c20a211c5d7677ba2a26c317d8ae6b25aa492016dc8ceca2469761d063d8090600090a2506001919050565b600154600160a060020a031633146105a557600080fd5b60015460008054604051600160a060020a0393841693909116917f8be0079c531659141344cd1fd0a4f28419497f9722a3daafe3b4186f6b6457e091a36001805460008054600160a060020a0319908116600160a060020a03841617909155169055565b600061049e60038363ffffffff6109c416565b600054600160a060020a0316331461063357600080fd5b60008054604051600160a060020a03909116917ff8df31144d9c2f0f6b59d69b8b98abd5459d07f2742c4df920b25aae33c6482091a260008054600160a060020a0319169055565b600054600160a060020a031681565b60008054600160a060020a031633146106a257600080fd5b600160a060020a0382161515610702576040805160e560020a62461bcd02815260206004820152601860248201527f696e76616c6964206d65726368616e7420616464726573730000000000000000604482015290519081900360640190fd5b61071360038363ffffffff6109f316565b1515610769576040805160e560020a62461bcd02815260206004820152601360248201527f6d65726368616e7420616464206661696c656400000000000000000000000000604482015290519081900360640190fd5b604051600160a060020a038316907fc596bdf76682c6315371c70f872bf03746834f9dd5d02793d07de0d5e8f4015590600090a2506001919050565b60606107b16003610a65565b90505b90565b600154600160a060020a031681565b600054600160a060020a031633146107dd57600080fd5b60018054600160a060020a031916600160a060020a0392909216919091179055565b600080600061080e85856109a5565b151561081d57600092506108fe565b600160a060020a038416600090815260018601602052604090205460028601805491935090600019810190811061085057fe5b600091825260209091200154600286018054600160a060020a03909216925082918490811061087b57fe5b60009182526020808320919091018054600160a060020a031916600160a060020a0394851617905591831681526001870190915260409020829055600285018054906108cb906000198301610acb565b50600160a060020a038416600090815260208681526040808320805460ff19169055600180890190925282209190915592505b505092915050565b82600160a060020a031663a9059cbb83836040518363ffffffff1660e060020a0281526004018083600160a060020a0316600160a060020a0316815260200182815260200192505050602060405180830381600087803b15801561096957600080fd5b505af115801561097d573d6000803e3d6000fd5b505050506040513d602081101561099357600080fd5b505115156109a057600080fd5b505050565b600160a060020a03166000908152602091909152604090205460ff1690565b600082600201828154811015156109d757fe5b600091825260209091200154600160a060020a03169392505050565b60006109ff83836109a5565b15610a0c5750600061049e565b50600160a060020a0316600081815260208381526040808320805460ff19166001908117909155600286018054808301825590855283852081018054600160a060020a0319168717905594845294850190915290205590565b606081600201805480602002602001604051908101604052809291908181526020018280548015610abf57602002820191906000526020600020905b8154600160a060020a03168152600190910190602001808311610aa1575b50505050509050919050565b8154818355818111156109a0576000838152602090206109a09181019083016107b491905b80821115610b045760008155600101610af0565b50905600a165627a7a72305820685fa7e8b79939c3875dc38f6f089c35ca315352af67026cee9f043bb83831740029",
  "linkReferences": {},
  "deployedLinkReferences": {}
}